:020000040000FA
:10000000F05A0020F9020000010300000303000081
:1000100005030000070300000903000000000000C2
:100020000000000000000000000000000B030000C2
:100030000D030000000000000F030000110300008A
:100040001303000013030000010800001303000065
:10005000AD040000130300001303000013030000AD
:100060001303000013030000130300001303000038
:100070001303000013030000130300001303000028
:100080001303000013030000130300001303000018
:10009000130300001303000013030000BD0400005D
:1000A00013030000130300001303000013030000F8
:1000B0001303000013030000000000000000000014
:1000C00013030000130300001303000013030000D8
:1000D00013030000A1030000130300000000000050
:1000E0000000000000000000000000000000000010
:1000F0000000000000000000000000000000000000
:1001000000000000000000000000000000000000EF
:1001100000000000000000000000000000000000DF
:1001200000000000000000000000000000000000CF
:1001300000000000000000000000000000000000BF
:1001400000000000000000000000000000000000AF
:10015000000000000000000000000000000000009F
:10016000000000000000000000000000000000008F
:10017000000000000000000000000000000000007F
:10018000000000000000000000000000000000006F
:10019000000000000000000000000000000000005F
:1001A000000000000000000000000000000000004F
:1001B000000000000000000000000000000000003F
:1001C000000000000000000000000000000000002F
:1001D000000000000000000000000000000000001F
:1001E000000000000000000000000000000000000F
:1001F00000000000000000000000000000000000FF
:10020000DFF80CD000F0BAF8004800476113000096
:10021000F05A002030B4044654E8000F0D4644E87C
:100220000053002BF8D1156030BC704730B4044641
:1002300054E8000F40EA010544E80053002BF7D1D1
:10024000156030BC704730B4044654E8000F00EA33
:10025000010544E80053002BF7D1156030BC70470E
:1002600030B4044654E8000F80EA010544E8005326
:10027000002BF7D1156030BC704730B4044654E809
:10028000000F00EB010544E80053002BF7D1156087
:1002900030BC704730B4044654E8000FA0EB0105B1
:1002A00044E80053002BF7D1156030BC704770B4A0
:1002B00004464FF0000054E8006F0D68AE4207BFDF
:1002C00044E80023012044E800630E60002B1CBFBB
:1002D0000020F0E770BC704730B4044654E8000FCB
:1002E00088422CBF451A054644E80053002BF5D13F
:1002F000156030BC7047000006488047064800473C
:10030000FEE7FEE7FEE7FEE7FEE7FEE7FEE7FEE7C5
:10031000FEE7FEE7E5040000010200000048704728
:10032000A03E010040EA01039B0703D009E008C991
:10033000121F08C0042AFAD203E011F8013B00F8AA
:10034000013B521EF9D27047D2B201E000F8012BF6
:10035000491EFBD270470022F6E710B513460A4645
:1003600004461946FFF7F0FF204610BD421C10F866
:10037000011B0029FBD1801A70470000064C074D75
:1003800006E0E06840F0010394E807009847103465
:10039000AC42F6D3FFF738FF443F0100643F010051
:1003A0002DE9FC413F4E4FF48A752946304601F055
:1003B000E9FB3D4C70B12946304601F0E8FB60791D
:1003C00040F008016171880704D5C80602D541F0E4
:1003D000200060714FF482752946304601F0D2FB4F
:1003E00070B12946304601F0D2FB607940F004013B
:1003F0006171C80704D0C80602D541F020006071C1
:100400004FF484773946304601F0BCFB0025B0B18B
:100410003946304601F0BBFB0420C6F80803C6F895
:100420000055214800212268103090471E480021C5
:1004300022680830904701202071BDE8FC81607976
:1004400081074FEAC07103D519B1010705D4F4E75C
:1004500009B9010703D48107EFD44107EDD520F096
:100460000C00607181060BD520F0200040F01000D8
:100470006071226802B00121BDE8F0410020104700
:10048000D4E90412CDE90012D4E90212A560E560B6
:10049000C4E9041240F0100060712268012168462E
:1004A0009047CAE7005002401015002002494FF063
:1004B000402002F075BD000078150020074810B5F7
:1004C000D0F80011002907D00021C0F8001101F078
:1004D000E9FF03490220487010BD00000070014090
:1004E00008000020F0B5B5480023021D0178101D5A
:1004F00001254FF0805406290BD11678360708D114
:100500000678C6F30316032E06D0042E04D0052E5B
:1005100002D0062907D00EE0B4F82463A84FC6F332
:1005200004263E6002E01678360704D10678C6F34A
:100530000316032E02D0062904D00FE0A24FA14ECD
:100540007E670EE01678360708D10678C6F30316E4
:10055000032E06D0042E04D0052E02D0062907D083
:100560000EE0D4F84462994FC6F342363E6002E092
:100570001678360704D10678C6F30316032E02D088
:10058000062906D011E0924E376827F08077376051
:100590000EE01678360708D10678C6F30316032E48
:1005A00006D0042E04D0052E02D006290AD011E070
:1005B0004FF08046C6F80C31C6F81031834E361F16
:1005C000336002E01678360704D10678C6F30316C6
:1005D000032E02D0062905D00CE07C4F0326643799
:1005E0003E600AE01678360704D10678C6F3031693
:1005F000032E02D006290DD014E0764F05263E606A
:10060000744E78363560734E083633603F263F1D92
:100610003E6002E01678360704D10678C6F303166A
:10062000052E02D0062957D062E06B4E36686B4F1C
:100630003E60694E361D36683F1D3E60664E083688
:1006400036683F1D3E60644E0C3636683F1D3E6086
:10065000614E103636683F1D3E605F4E1436366878
:100660003F1D3E605C4E183636685C4F20373E605A
:10067000594E1C3636683F1D3E60574E2036366850
:100680003F1D3E60544E243636683F1D3E60524E3C
:10069000283636683F1D3E604F4E2C3636683F1D6B
:1006A0003E604D4E303636684C4F40373E604A4EC5
:1006B000343636683F1D3E60474E383636683F1D3B
:1006C0003E60454E3C3636683F1D3E60424E4036E9
:1006D00036683F1D3E6002E01678360708D106787E
:1006E000C6F30316032E06D0042E04D0052E02D026
:1006F000062907D019E0D4F85812394A01F04F0101
:10070000116002E0117809070FD10078C0F30310DF
:10071000032803D0042801D0052806D131480168F8
:10072000C90702D06FF001010160D4F8300106283A
:1007300008D1D4F83401062804D12B48016841F4CB
:100740008061016022487438016841F470010160E1
:10075000BFF34F8FBFF36F8F4FF01021D1F800021E
:10076000002803DBD1F80402002822DA1F4A1560B2
:100770001F480468002CFCD01524C1F8004205680D
:10078000002DFCD0C1F8044201680029FCD01360A0
:1007900001680029FCD0BFF34F8F0D48F038016885
:1007A000144A01F4E06111430160BFF34F8F00BFB1
:1007B000FDE7124910480860F0BD0000E00F00F0AE
:1007C000403501400DF0ADBA00C007403C05004087
:1007D000FCED00E0105600400404001020C500406D
:1007E000E40E0040000400403C17004004E50140D6
:1007F00000E401400400FA050090D003C800002086
:1008000001480068004700003800002002E008C8E6
:10081000121F08C1002AFAD170477047002001E07A
:1008200001C1121F002AFBD1704730B44FF0A04322
:100830004FF40034C3F80C456400C3F80C45640061
:10084000C3F80C4530BC00F00BB80EB50021009188
:10085000CDE901106A4644F20100FFF7E6FF0EBD44
:1008600008B501238DF800309DF80030144B186056
:1008700059609A606FF48041401807D001280FD169
:10088000DA60D86800889861D86807E01A6118694A
:100890008068586118690068986118694068D86173
:1008A000186858689868D868186958699869D86944
:1008B00072B600BF9DF800000028FBD162B608BDEB
:1008C000AC15002000F002B800F008B872B602487B
:1008D0000168491C01607047500000200349086806
:1008E000401E086000D162B6704700005000002032
:1008F0002DE9F041064608680C46411C4FF0A04720
:100900004FF0010506D005FA00F1C7F80815206878
:1009100001F01DF96068411C02D0002101F0F3F8DC
:100920003168A069C1F82405607D227D31681043DB
:10093000C1F86C05D4E900123068C0F81425C0F87D
:100940000C15207D012815D1A068411C02D0002182
:1009500001F0D9F8E068411C05D08540C7F808557A
:10096000E06801F0F4F8D4E902123068C0F8082514
:10097000C0F81015BDE8F0812DE9F0410646086881
:100980000C46411C4FF0A0474FF0010506D005FA78
:1009900000F1C7F80815206801F0E3F86068411C11
:1009A00002D0002101F0B8F83168A069C1F824052F
:1009B000607D217D32680843C2F86C05D4E90012DD
:1009C0003068C0F80C15C0F81425207D012815D119
:1009D000A068411C02D0002101F09EF8E068411C93
:1009E00005D08540C7F80855E06801F0BAF8D4E9A9
:1009F00002123068C0F80825C0F81015BDE8F08173
:100A00002DE9F0470546861C90460F464FF0010938
:100A10000020FFF757FF1B4C20683860D4E9000125
:100A2000401AA16804F21C47081A0EE0012138465A
:100A300000F006FE00F046FC0146384600F000FEDD
:100A4000D4E90001401AA168081A401C8642EDD87A
:100A5000B8F1000F03D0052065F3891002E00620ED
:100A600065F39F50A2682168114004EB8101C860C2
:100A70002068304420600020FFF726FF4846BDE88C
:100A8000F0870000CC16002030B482680468531C44
:100A90008360A154D0E901128A4202D330BC00F035
:100AA000C4BE30BC70470000034803C8814201D176
:100AB0000120704700207047CC1600202DE9FC4132
:100AC00006468179007879B1002101F013F8707839
:100AD000002101F00FF8B7784FF0FF34FF2F09D055
:100AE000384601F02AF806E001F027F8707801F0A6
:100AF00024F8F0E72746F578FF2D03D0284601F0CB
:100B00001CF800E025463079FF2803D00446002178
:100B100000F0F0FFCDE90054727831783B4602488E
:100B200001F03BF8BDE8FC8100500240EFF3058086
:100B3000C005C00D10D0103840B2002806DA00F011
:100B40000F0000F1E02090F8140D03E000F1E02028
:100B500090F80004400970470F20704710B500213D
:100B6000024800F078FD80F3100010BDE81A002064
:100B70002DE9F04788B00446FFF7D8FF022803D2DA
:100B8000082008B0BDE8F087A06838B1E06828B157
:100B9000206918B1206808B1207908B10720F0E772
:100BA00086484FF0FF31C0F808130E0CC0F80463FC
:100BB0004FF0E0204FF400014FF017094FF0010A09
:100BC0000025C0F880127E4BE02283F80024C0F894
:100BD0000011DFF8F08121687B48C8F80C10A1688B
:100BE0000160E1684160794B216981600FCB03AFFF
:100BF00087E80F000023764A03A908F1140000F0EB
:100C00009DFD0028BDD108F1180001F0AFFC0627BA
:100C10000023CDE900751A4619461B2000F0FEFEA0
:100C20000023CDE900751A4619461A2000F0F6FE99
:100C300065491420143908701620487081F8029014
:100C40001820C87019200871072048718D71CD7166
:100C50000D7281F809A081F80AA02079F0B1002076
:100C6000FFF7F3FD58485B49143800F061FD002898
:100C700087D14FF0020988F80190BBEE090A45467A
:100C800088ED040A01F0FEFF00274FF0A0080122C2
:100C900002A9002002F02AF830B10AE04FF000501B
:100CA000C86004200874DDE7BDF80820B8EB122FF7
:100CB00003D07F1C052FEADB20B9BDF80810B8EB84
:100CC000112F03D001F0CAFF05205AE73246202138
:100CD000302002F081F832464FF4F971282002F0FA
:100CE0007BF8324640F622712C2002F075F832462D
:100CF00044F246413C2002F06FF8324640F2371190
:100D0000242002F069F832467321022002F064F8D0
:100D1000324644F2BF01302002F05EF8324640F61F
:100D20000F712E2002F058F82079E8B30020FFF769
:100D30008CFD32463021062002F04EF832467021FA
:100D40000A2002F049F840F20F3200210E2002F092
:100D500043F8324643F63C41102002F03DF832465B
:100D600044F24001222002F037F8324626212420A6
:100D700002F032F832464FF4B8712A2002F02CF813
:100D800032468821202002F027F832460021242014
:100D900002F022F801213246080202F01DF801F0AB
:100DA0005DFF85F8019000E001E00020E9E63246B1
:100DB0000021042002F010F8BBE7000000700140A1
:100DC00017E000E008000020041500209C3D010011
:100DD000452F0000250F00001CB50B484178022963
:100DE00001D008201CBD0321417008480022416841
:100DF0000091016801918068C0F34F01684601F0DD
:100E0000E9FA00201CBD00000800002004150020A5
:100E10001CB50B484178022901D008201CBD0421D3
:100E20004170084800224168009101680191806882
:100E3000C0F34F01684601F0CDFA00201CBD000050
:100E400008000020041500201CB50B484178022939
:100E500001D008201CBD05214170084800224168CE
:100E60000091016801918068C0F34F01684601F06C
:100E7000B1FA00201CBD000008000020041500206D
:100E800010B5074C6078032803D0052801D008204E
:100E900010BD01F007FB02206070002010BD0000B3
:100EA0000800002010B5002821D0114B0022001F9F
:100EB000196803E0814203D80A4649680029F9D13C
:100EC00052B11368841A9C4204D10068184410601F
:100ED000104602E0506000E0186039B102680B1A59
:100EE000934203D10B681A4402604968416010BD07
:100EF000CC00002010B5112000F017FE122000F0E9
:100F000014FE132000F011FE4FF0A0404FF400310A
:100F1000C0F808154900C0F808154900C0F80815C0
:100F200010BD00002DE9FC410546C80751D04B4CCF
:100F3000D4E901104008226801EB800102EB800037
:100F4000E5B32A68D2B3464F787803284DD00428F9
:100F50005BD005283DD1284601F00EFA08B1FFF715
:100F600074FC3E4E143EF068B0F1005F02D00020E9
:100F7000FFF76BFC307C042802D00020FFF765FCF3
:100F8000A0686E6845086C00204600F0C9FA8046EB
:100F90002146FFF7E0F93349B868884241D200EBB7
:100FA00045028A4200D30C1A796822460144404621
:100FB000FFF7B8F9B8682044B86037E00BE0A068E4
:100FC0002168420801EB8201C0F34F02002000F0CB
:100FD0004DF8BDE8FC81CDE90010684601F0CCF980
:100FE0000028ECD0FFF731FCE9E7284601F0C4F90E
:100FF00008B1FFF72AFCA068C0F34F02D5E9000151
:1010000002B0BDE8F04100F031B86868009028688F
:101010000190684601F0B0F90028DAD0FFF715FC1E
:10102000D7E700201049B8600120086000210A4677
:101030000BE008468B1C04E038F8124026F81040FC
:10104000401C9842F8DB891C521CB1EB450FF0D3D1
:101050004046BDE8FC41FFF725BF00000415002015
:10106000080000208006010000700140FEB5114C10
:1010700015460E46012750B16178032919D18DF824
:101080000070ADF808500190E16868468847002E6E
:101090000FD0607803280CD100208DF80000ADF847
:1010A00008500196E16868468847002801D1024847
:1010B0000760FEBD08000020007001402DE9F047E8
:1010C00001780027E9BB058946686C00204600F0DE
:1010D00027FA81462146FFF73EF9DFF86C801B496D
:1010E000D8F80400884213D200EB45028A4201D3AB
:1010F000491E0C1AD8F80010224601444846FFF752
:1011000011F9D8F8040001272044C8F8040002E0CF
:101110000020C8F8040000210A460CE008468B1C99
:1011200005E000BF39F8124026F81040401C9842F4
:10113000F8DB891C521CB1EB450FEFD34846FFF793
:10114000B1FE3846BDE8F0870000002080060100AF
:101150002DE9FC5F0E008346DDE90C47C6F1000077
:1011600098469246814600D40846012503E000BF18
:1011700090FBFAF06D1C5045FADAA84500D94546B7
:1011800024B1002E01DB780700D5641EB80702D514
:10119000B8F1000F0AD0F80708D13CB1A54205D23A
:1011A00020215846641EFFF76FFCF6E7002E02DA96
:1011B0004E462D2102E0780703D52B215846FFF734
:1011C00063FC07F0030002280BD1B8F1000F08D12F
:1011D0003CB1A54205D230215846641EFFF754FCAD
:1011E000F6E7CDE90047434652463146584602F0FD
:1011F00023FABDE8FC9F000070B50D460446006868
:101200004FF4887101F048F84FF49071206801F0B4
:1012100043F84FF49271206801F03EF84FF4A27148
:10122000206801F039F820681249C0F804132068DA
:101230006907000B40B2090E002806DA00F00F0023
:1012400000F1E02080F8141D03E000F1E02080F8B8
:10125000001420680121000B40B200F01F029140F1
:101260004009800000F1E020C0F88012C0F80011B1
:1012700070BD0000100302000246002012689307B0
:1012800002D0530702D47047500714D502F0030070
:10129000012802D002280CD105E0C2F383100B68AC
:1012A000801C184404E00223086803EB92521044A7
:1012B000086001207047086800EB9253C2F3891060
:1012C000401CEEE72DE9FF410026234800F0B5F968
:1012D0002148001F074600F0B0F9204C60680090DC
:1012E000A56800E000986946284004EB80000C30B7
:1012F000FFF7C2FF0028F5D101AA009901EA050312
:1013000004EB8303491CDB6842F82030401C009149
:101310000228F2D3019800F0030001280BD0022824
:1013200010D10198032101EB90500099BDF80A609B
:1013300001EB900005E00198BDF80A60C0F383104E
:1013400008440090384600F075F908B100986060D4
:1013500004B03046BDE8F081E41A0020CC1600202D
:1013600086B0FFF7C7FD4FF40041002000F06AFE91
:1013700008B1FFF76AFA00F0E9FC2D4C03252DA116
:10138000208805EB004000F0FBFD33484FF420724D
:1013900000F52061CDE902014FF4A07104912F49BD
:1013A000009100218DF80410A7210160C0F80015FC
:1013B0002088134605EB004029A100F0E5FD2088B8
:1013C0002F4B05EB0040244A2EA100F0DDFD2088C4
:1013D000374B05EB0040A3F5A06236A100F0D4FD29
:1013E0006846FFF7C5FBFFF74BFD20883CA105EBE6
:1013F000004000F0C5FDFFF727FD4FF4FA663046C8
:1014000000F086F9FFF73CFDFFF7E6FC304600F000
:101410007FF9FFF735FD208838A105EB004000F08B
:10142000AFFDFFF7F5FC00BF00F09EFCFCE70000FD
:10143000EC0000205465656E737920417564696F16
:1014400020626F617264206578616D706C652073D5
:101450007461727465642E00F0000020BD100000FD
:1014600073697A65206F6620206D5F6932735F74DF
:10147000785F6275666665722025642C202564009D
:10148000F00500206932735F696E697469616C5F91
:1014900074785F6275666665722061646472313A61
:1014A0002025642C2061646472323A202564000097
:1014B000F00F00206932735F696E697469616C5F57
:1014C00052785F6275666665722061646472313A53
:1014D0002025642C2061646472323A202564000067
:1014E000417564696F20696E697469616C697A61BC
:1014F00074696F6E20646F6E652E00004C6F6F70A4
:1015000020696E206D61696E20616E64206C6F6F62
:10151000706261636B204D494320646174612E00E9
:10152000F0B50B30154D20F007010024144A0FE0F0
:1015300003688B420BD38B4205D95E1A4318476868
:10154000C3E9006700E04368136002C004E0021DC5
:1015500010680028ECD12046002802D1286808B184
:101560000020F0BD064A07481060074A121A22F010
:101570000702C0E9002401202860D7E7D00000203E
:10158000CC000020F41A0020F03A00202DE9F047AA
:10159000C7880446181D16468946B0FBF7F1B0FB14
:1015A000F7F207FB12009A193A44D21CB2FBF7F289
:1015B000DDF820A001E02468491E0029FBD13D1A76
:1015C0008846B54216D818E0BAF1000F05D02118A8
:1015D00009EB08002A46091D04E0204409EB080134
:1015E0002A46001DFEF79EFE00202468761BA844B4
:1015F000B74201D9354600E03D46002EE4D1BDE8B2
:10160000F087000030B5024659B100F047FD0021D7
:10161000074C09E004EB810315685B88AB4202D1FB
:101620001160002030BD491C8142F3D3052030BD3C
:10163000D4000020002100F009B8012100F010B80A
:1016400008B56A46FEF719FE009808BD08B56A4657
:10165000FEF7F9FD08BD08B56A46FEF7DBFD08BDDB
:1016600008B56A46FEF7E2FD009808BD08B56A466F
:10167000FEF710FE009808BD70B504460025284608
:10168000FFF720F921686268086890420ED9401E71
:1016900008600178A38AE26801FB0325227A2168A9
:1016A000101AC0B20A79824200D208710020FFF7F6
:1016B0000BF9284670BD70B505460C460020FFF7B3
:1016C00001F9E868A98A201AB0FBF1F12A681068CC
:1016D000431C13600170BDE870400020FFF7F4B8B0
:1016E00010B530B1017A42680368891AC9B21A602C
:1016F00006E00E2010BD03681A68541C1C601170AF
:10170000491EC9B2F7D2006800210171084610BD18
:101710002DE9F041040007D0044E4FF47A47751CC0
:101720003846A847641EFAD1BDE8F081F0360000C3
:1017300000B9014800F0C6BD883D01002DE9F04127
:10174000064604780B4815460F4640F8242008301A
:1017500040F82430487B10B1084601F09DFB0DB1E4
:10176000054A00E0002223463946301DBDE8F0411D
:1017700000F00EBF40000020612F000000B585B0D2
:101780000B788DF800304B788DF801308B78019311
:10179000CB7802934B680393896804916946001DD6
:1017A00000F068FF05B000BDF0B5054604781548A7
:1017B00089B0164640F82420124A0869121DA2F189
:1017C000080742F82400487F385520226846FEF773
:1017D000A9FD04942878385C48B10EB10A4A00E0AB
:1017E00000226946281D01F08FF809B0F0BD0EB146
:1017F000064A00E00022694605F10C0000F056FFA1
:10180000F3E70000300000201535000061330000D0
:101810000FB408B50399002904D004AA00926A46BF
:1018200000F00FF801B05DF814FB10B582680446B3
:10183000002A05D0D4E90403216898470020A0605D
:1018400010BD2DE9FC4791460C00804676D014F877
:10185000011B39B125290ED04046FFF715F9207834
:101860000028F4D198F80C00002867D04046BDE865
:10187000FC47FFF7DABF0020012221782B291BD07B
:101880002D2902D0302908D102E040F0010001E00A
:1018900040F00200641C002AEFD100252A290ED056
:1018A0002178A1F130020A2A11D205EB850201EB61
:1018B0004205641C303DF1E740F00400EAE7D9F846
:1018C00000100B1DC9F800300968641C0D44217814
:1018D00000232E290BD114F8011FA1F130020A2A8E
:1018E00005D203EB830201EB4203303BF3E76C29A3
:1018F0000DD068290BD0692921D00BDC252918D0FF
:10190000582931D063290ED0642915D117E014F875
:10191000011FECE7702969D0732932D075291BD0DB
:10192000782909D120E0D9F80000011DC9F800107C
:1019300001784046FFF7A8F8641C90E76CE0D9F8FE
:1019400000100A1DC9F800200968CDE900500A22DC
:101950004046FFF7FDFBEFE7D9F800100A1DC9F874
:10196000002009680A2206E0D9F800100A1DC9F80B
:10197000002009681022CDE90050404601F05CFECD
:10198000DAE7D9F8001000270A1DC9F800200E6810
:10199000C00705D112E04046761C7F1CFFF774F8A3
:1019A00031780029F7D104E0202140466D1EFFF771
:1019B0006BF8BD42C0D9002DF6D1BDE74EB130461F
:1019C000FEF7D4FC074604E0202140466D1EFFF7D9
:1019D0005BF8BD4206D9002DF6D103E04046761CE7
:1019E000FFF752F831780029F8D1A5E7D9F80000BF
:1019F000011DC9F80010056830214046FFF744F882
:101A000078214046FFF740F808200021CDE9000189
:101A1000034610222946B0E7BDE8FC8770B541EACD
:101A20004201DDE904564FF0A04441EA830141EA56
:101A3000052104EB800041EA0641C0F8001770BDA3
:101A400070B541EA4201DDE904564FF0A04441EA95
:101A5000830141EA052104EB800041EA0641C0F818
:101A6000001770BD70B541EA4201DDE904564FF040
:101A7000A04441EA830141EA052104EB800041EAE8
:101A80000641C0F8001770BD70B541EA4201DDE9BA
:101A900004564FF0A04441EA830141EA052104EBDA
:101AA000800041EA0641C0F8001770BD70B541EAF8
:101AB0004201DDE904564FF0A04441EA830141EAC6
:101AC000052104EB800041EA0641C0F8001770BD13
:101AD0001CB5002100910B4601220191FFF7C2FFC6
:101AE0001CBD1CB5002100910B4601220191FFF79E
:101AF000CBFF1CBD1CB500220B4600921146019283
:101B0000FFF79EFF1CBD1CB500220B46009211463C
:101B10000192FFF7A7FF1CBD1CB500220B460092E7
:101B200011460192FFF7B0FF1CBD4FF0A04202EB3F
:101B300080000321C0F8001770471CB500210091F8
:101B40000B46012201911146FFF77AFF1CBD1CB51F
:101B5000002100910B46012201911146FFF782FFFF
:101B60001CBD1CB5002100910B46012201911146BC
:101B7000FFF78AFF1CBD4FF0A04201218140C2F84F
:101B8000081570474058002800D00120704708B55C
:101B9000002242504058009008BD30B5DDE90345B1
:101BA000C0F86415C0F86825C0F86035C0F8704505
:101BB000C0F86C5530BD000030B5124B0146002016
:101BC000D3F81044224609E0157A854205D1401C1D
:101BD0000A28F7DB4FF0FF3030BD5268002AF3D1FE
:101BE000421CF9D00872D3F810242AB152684A6016
:101BF000D3F81024516030BD0022C3F810144A609D
:101C000030BD0000CC160020F0B595B01C4615463E
:101C10000F4608461A9E00F0FDFA182109A8FEF7A3
:101C20009AFB0E96CDE909540023082203A93846F1
:101C300000F005FB05980690BDF81000ADF81C00FB
:101C4000BDF81200ADF81E0000208DF821000398A9
:101C5000082600F00300012802D0022818D032E044
:101C600003983346850AC0F3C2008DF8200003981C
:101C70000FA9C0F38314A200384600F0E0FA09A8C7
:101C8000009006AB22460FA9284600F01FFA1AE082
:101C90000398840DC0F3C2008DF82000082C01D2F7
:101CA000254600E0082533462A460FA9384600F0AD
:101CB000C6FA2E44641B09AB06AA29460FA800F0F9
:101CC0006BF9002CEAD1384600F0AAFA15B0F0BD45
:101CD0007047012001F062BB084810B50178084A3E
:101CE000515C19B1001D00F09BFE02E00C3000F0C9
:101CF000A9FDBDE81040002001F050BB58000020B5
:101D00002C00002008B5034A00924023024AFFF746
:101D10007BFF08BD1D2C0000CC1500200A4A0129BC
:101D200002EBC00007D0022907D0032907D00429FD
:101D300007D00020704702207047042070470079C8
:101D40007047407970470000643F010010B5FFF70D
:101D5000C0FF04210348FFF72FFF0249012048720A
:101D600010BD00006C0000202DE9F0478CB0FEF79C
:101D70009BFE18B100200CB0BDE8F087784C002025
:101D8000C4F81804BFF34F8F60680290A5684FF045
:101D90000008284004EB800008E021680298814296
:101DA00001D86160E6E7284004EB80000C3002A90E
:101DB000FFF762FA0028F0D103AB029901EA0502AD
:101DC00004EB8202491CD26843F82020401C029197
:101DD0000228F2D3039800F00300022802D0012861
:101DE0004ED0A5E003985022810D8946B2EB905F5A
:101DF00000D850210E4666F39F5003900831594891
:101E000000F0BFF9070078D000F004FA434608223A
:101E100003A9384600F019FA029908F1080A294086
:101E2000681A8000001D864223D94D4D0C3530B113
:101E3000C2B204EB8101301A90460C3104E029460D
:101E4000F2B2002590462846C6B25346384600F006
:101E5000FCF90AEB08032DB1324629464FEA070088
:101E600000F0F3F9029909F1030001EB90000290F0
:101E70003AE004EB81015346324638460C31EFE735
:101E80000398C0F38311062900D3062161F389105A
:101E90000390C0F38310801C8100324800F071F978
:101EA000070045D000F0B6F94346082203A938469A
:101EB00000F0CBF908F1080800260FE0029843462D
:101EC00000EA0501401C04EB81010290042238461F
:101ED0000C3100F0BAF908F10408761C0398C0F33D
:101EE0008310B042EAD847B1D4F81054D4F818049B
:101EF00068B1384600F094F92CE019E0687A0128BE
:101F000004D12A6828463946126890476D68002D2A
:101F1000F4D1384600F084F90020FEF7D3FCD4F861
:101F2000180408B9029860600020FEF7CDFC11E0AB
:101F3000D4F8104404E02168204689688847646822
:101F4000002CF8D108480221008801EB004007A1CD
:101F500000F016F8FEF7A8FD80F001000BE7000086
:101F6000CC1600209C3F0100EC0000204261636B16
:101F7000656E647320666C757368656400000000AC
:101F800000231A4600F042BF1CB5CDE9002302230E
:101F90006A4600F03BFF1CBD2DE9F0470E46804627
:101FA0001C46924608293ED894F80C9000202073D5
:101FB0001946104600F0AAFD0025B54206D218F8D1
:101FC00005201AA12046FFF723FC03E019A12046B3
:101FD000FFF71EFC6D1C082DEFD317A12046FFF75D
:101FE00017FC0025B54210D218F80570FEF796F9D7
:101FF0000068C05D10F03E0F01D03A4600E02E228E
:102000000EA12046FFF704FC03E00DA12046FFF7D8
:10201000FFFB6D1C082DE5D301222146504600F040
:1020200057FD84F80C90BDE8F08700002025303281
:1020300078000000202020007C00000025630000C4
:1020400020000000104810B5FF21816000210160D0
:102050004160C0F81814C0F8141480F820140B481C
:1020600000F0DCF800280DD109480A490A4B401A53
:10207000C108002003E000BF23F82000401C884274
:10208000FAD3002010BD0000CC1600209C3F0100B8
:102090009C3F0100643F0100D40000200248034936
:1020A000401AC008704700009C3F0100643F0100D7
:1020B00013B56846FFF7A6FA08B100201CBD024818
:1020C000009950F831001CBD643F01002DE9FF4725
:1020D00081460C9D00200C462F7B2873984616469F
:1020E0002946184600F012FD072E42D2DFE806F01E
:1020F00004090F161F2A360049462846FFF788FBB9
:1021000037E0494628462268FFF782FB31E0D4E9F0
:10211000002349462846FFF77BFB2AE0A068009091
:10212000D4E9002349462846FFF772FB21E0D4E9B1
:102130000201CDE90001D4E9002349462846FFF712
:1021400067FB16E004F1080007C88DE80700D4E932
:10215000002349462846FFF75BFB0AE004F108002C
:102160000FC88DE80F00D4E9002349462846FFF741
:102170004FFB00222946404600F0AAFC2F73BDE821
:10218000FF872DE9F041858A80462D1F4819C01C24
:10219000B0FBF5F0C6B24046FFF76EFA041E19D048
:1021A0000020207101206071E58000272546761E01
:1021B000C4F800800BE04046FFF75EFA60B1617939
:1021C000491C6171286005467F1CC0F80080B74239
:1021D000F1D32046BDE8F081204600F002F800204F
:1021E000F8E72DE9F041457901466B1E002201E038
:1021F0000968521C9A42FBD30F680146002605E08D
:1022000038460C68FFF757FA2146761CAE42F7D3E2
:10221000BDE8F0810121001DFFF712BAFFF760BA97
:1022200010B504460121001DFFF720FA10F0FF0F42
:1022300004D12046BDE81040FFF7D3BF10BD38B52C
:1022400001240094FFF7A2F938BD38B500240094AA
:10225000FFF79CF938BD4058002800D00120704796
:1022600008B5002242504058009008BD4058002850
:1022700000D00120704708B500224250405800901D
:1022800008BDD0F80403084000D001207047405832
:10229000002800D00120704708B500224250405865
:1022A000009008BD002802D001498001084770470E
:1022B000813D0100002802D0014980010847704794
:1022C000C13D01002DE9F047284D04468A46287992
:1022D00010B10820BDE8F087A67994F8078094F83B
:1022E00008C0627AA77A207CE3684FF0000986B9BB
:1022F000012A02D0022A03D00BE0012830D008E0E6
:1023000070B302282CD004282AD0062828D0082808
:1023100026D01749C1F80465C1F82485C1F820C545
:10232000C1F81C25C1F82875C1F818050126CBB1E4
:10233000C1F81435C1F810652046FEF7BFFBC5F89B
:1023400000A060790B49400181F800040949202070
:102350002139C1F88002C1F800012E710020B9E7CF
:102360000720B7E7C1F81095E6E700001015002038
:102370000050024025E000E070B5144D0446687935
:10238000C00601D4082070BD206810B100F0B4F878
:10239000C8B1606810B100F0AFF8A0B168790C491D
:1023A000820702D56268C1F84025C20702D02268C0
:1023B000C1F83825D4E90012C5E9021220F0100056
:1023C0006871002070BD102070BD00001015002045
:1023D0000050024070B5314C05460E462079012868
:1023E00001D0082070BD286810B100F085F858B100
:1023F000686810B100F080F830B128680028607972
:1024000004D040F0010003E0102070BD20F0010076
:102410006071696811B140F0020001E020F0020033
:1024200020F01C006071E680D5E900100022A16058
:10243000C4E903021A4D6261C5F85065C5F8381544
:1024400001B10121C5F80815C5F8400500B101200A
:10245000C5F80C050126C5F80065022020714FF46F
:1024600082712846FFF793FB4FF48A712846FFF7E5
:102470008EFB4FF484712846FFF789FB6079C10712
:1024800000D00221202202EA0010014341F00400A2
:10249000C5F804032E60002070BD00001015002058
:1024A000005002400548417921F010014171044972
:1024B0002220C1F808030120486070471015002051
:1024C000005002401CB5FFF7EDFF08492020C1F87D
:1024D0008001491700910B460A4605480191FFF714
:1024E0005CFB0449002008711CBD000004E000E012
:1024F00000500240101500200121B1EB507F01D1A6
:1025000001207047002070470121B1EB507F01D1BD
:1025100001207047002070470121B1EB507F01D1AD
:10252000012070470020704770B50D4600F03AFB5F
:1025300004000FD00020FEF7C5F9207920B100205B
:10254000FEF7C2F9112070BD012025602071002026
:10255000FEF7BAF9002070BD10B500F023FB00288B
:1025600002D000210160017110BD000001790068F6
:1025700001EB810202EBC101044A02EB8101062258
:10258000C0F80025022081F82D0070477815002042
:102590002DE9FC410646007917460D4600EB800107
:1025A000324A01EBC00102EB8104984694F82D10E9
:1025B00011B10820BDE8FC812D4951F82010306888
:1025C000FFF7B2FF08B11120F4E7C4E90078002753
:1025D000A76084F8307084F82F70687B84F832002C
:1025E0004FF00608CDE9008703233A4639462868AC
:1025F000FFF75CFACDE900870022032311466868E3
:10260000FFF754FAD5E900123068C0F80815C0F891
:102610000C25A968C0F824152168012009B3316888
:102620002A7B090B49B200294FEA421206DA01F06F
:102630000F0101F1E02181F8142D03E001F1E02107
:1026400081F800243168090B49B201F01F0300FA38
:1026500003F24909890001F1E021C1F88022C1F8A3
:10266000002184F82D000020A4E700007815002048
:10267000C83D010030B40379006803EB830404EB28
:10268000C303054C04EB830413460A460146204667
:1026900030BC00F02BBD0000781500200149024835
:1026A00000F0A4BE28150020002000402DE9F041D4
:1026B0000546007916460F4600EB40012D4A01EB16
:1026C000C00102EB810494F82A1011B10820BDE882
:1026D000F081294951F820102868FFF725FF08B13B
:1026E0001120F4E739462846FEF702F9666038699A
:1026F000206030004FF001062FD03F7F4FF48E71E5
:102700002868FFF7B8FD4FF4A2712868FFF7B3FD02
:1027100028681A49C0F8041328684FEA4711000BCB
:1027200040B2002806DA00F00F0000F1E02080F847
:10273000141D03E000F1E02080F800142868000B6D
:1027400040B200F01F0206FA02F14009800000F1D9
:10275000E020C0F88012C0F8001128680421C0F8F9
:1027600000150020A061E06184F8290044F8140FEE
:10277000A675ACE728150020AC3D010080000200E2
:102780002DE9F047054600790B4600EB400101EBCF
:10279000C000234901EB8004284600F043F810B143
:1027A0001120BDE8F0874FF00008C4F82080A36036
:1027B000626184F828804FF48E7647463146286857
:1027C000FFF759FD28684FF00109C0F8089021462D
:1027D000286800F0A7FD606800BBD5F800A00EE0F7
:1027E00094F8280008B10F2716E031465046FFF74D
:1027F0003DFD0028F4D02146504600F093FD216AAB
:1028000060698142F1D331462868FFF72FFD002827
:10281000F9D02868C0F80C90C4F814803846C0E796
:1028200028150020007900EB400101EBC0000449AD
:1028300001EB80004069002800D0012070470000B3
:10284000281500202DE9F047044600794FF00009D3
:1028500000EB400101EBC000254901EB8007206837
:10286000C0F80095786880B120682249C0F8081344
:1028700020680121000B40B200F01F029140400986
:10288000800000F1E020C0F880112068D0F80C250D
:10289000D0F81485D0F80865D0F810554FF0FF3106
:1028A000C0F81415C0F80C152068C0F80815C0F859
:1028B0001015501C02D01046FFF70AF9B8F1FF3F7F
:1028C00002D04046FFF704F9681C02D02846FFF703
:1028D000FFF8701C02D03046FFF7FAF82068FFF7C7
:1028E0003BFE87F82A90C7F80490BDE8F087000007
:1028F00028150020840202000149024800F022BE8F
:1029000054150020002000402DE9F04105461646F0
:1029100000790F46154A00EBC00102EB810494F8E0
:10292000201011B10820BDE8F081114951F82010A4
:102930002868FFF7F9FD08B11120F4E73946284669
:10294000FEF71AF86660386920601EB1397F2846A4
:10295000FEF752FC28680821C0F800150020A0618D
:10296000E0610121606184F82010DCE7541500204B
:10297000B03D01002DE9F04704460E46007920499C
:1029800000EBC00001EB800517463046FFF7BCFDA9
:1029900030B1204600F036F820B11120BDE8F087B4
:1029A0001020FBE76F61AE604FF490760027314650
:1029B0002068FFF771FC4FF4AC7841462068FFF7C0
:1029C0006BFC2068AA686969C0F84425C0F84815FE
:1029D000206801218160686878B9B146494620685D
:1029E000FFF755FC064641462068FFF750FC0643BA
:1029F000F4D000B10F27002068613846CEE7000010
:102A0000541500200079054900EBC00001EB80005F
:102A10004069002800D001207047000054150020B4
:102A20002DE9F04704460079274900EBC00001EB8F
:102A3000800720684FF00009C0F80095786880B1E1
:102A400020682249C0F8081320680121000B40B219
:102A500000F01F0291404009800000F1E020C0F822
:102A600080112068D0F80C25D0F81485D0F80865BE
:102A7000D0F810554FF0FF31C0F80C15C0F8141500
:102A80002068C0F80815C0F81015501C02D0104678
:102A9000FFF727F8B8F1FF3F02D04046FFF721F8D3
:102AA000681C02D02846FFF71CF8701C02D0304684
:102AB000FFF717F82068FFF74FFD87F82090C7F859
:102AC0000490BDE8F08700005415002010030200B8
:102AD00010B50C46017A052908D0407A38B108486B
:102AE00008A102682046FEF793FE00E01AB106A195
:102AF0002046FEF78DFE2046BDE81040FEF795BE4D
:102B0000A4000020257300000D0A000038B5C3881A
:102B10000D46044633B114A0009015A216A1284614
:102B2000FEF776FE217A05291CD0607A48B1A0888C
:102B3000FFF7F4F8164951F8202016A12846FEF7B1
:102B400067FEA0880021FFF7B3FA03461049207AF8
:102B5000143951F8202001B02846BDE830400EA1BC
:102B6000FEF756BE38BD00001B5B306D0000000054
:102B70001B5B313B33316D0025734C6F67732064F1
:102B8000726F70706564202825642925730D0A0012
:102B9000A4000020257300003C25733E2025733AD5
:102BA000200000000349884201D1034870470020FB
:102BB00070470000002000403800002070B5054636
:102BC00088690C4600284FF4847128460AD0FFF724
:102BD00052FBD5F81805626AE1688854606A401CA7
:102BE000606270BDFFF747FBD5F8180570BD1FB5D3
:102BF00001238DF80030CDE90121D0E900126846AB
:102C000090471FBD1FB501238DF800308DF80810C7
:102C10000192D0E90012684690471FBD70B50D4C77
:102C20000020D2B22070201D0B4D0378EB5C1BB14D
:102C3000001DFFF79FFE02E00C30FFF7A1FD08B179
:102C4000FDF703FE6078002802D021780029FAD031
:102C500070BD0000540000202C00002010B5FFF7CC
:102C600021FCFFF72FFC05490548FEF761FD002810
:102C700003D0BDE81040FDF7E8BD10BD250F0000F2
:102C8000F014002000B587B0142216496846FDF7FD
:102C900049FBFF208DF803008DF80400C007039066
:102CA00011496846FEF744FD082805D1FFF70AFCE4
:102CB0000D496846FEF73CFD08B1FDF7C6FD094821
:102CC0000022143041680591016806918068C0F3C4
:102CD0004F0105A8FFF77EFB002801D0FDF7B5FDE9
:102CE00007B000BDF0140020250F00002DE9F043CF
:102CF00085B08946010A8DF80C108DF80D000A2068
:102D00008DF8010002208DF8000017468DF80200B2
:102D100010228DF80300154C03A904A80026019188
:102D20004FF001080496029084F80080694604F18F
:102D30001400FEF723FD050008D0FFF78FFF84F88D
:102D40000080284605B0BDE8F08320BF17B1207889
:102D50000128FAD0207826700228F2D1BDF81000A0
:102D600040BAA9F800000020ECE7000008000020AD
:102D70002DE9FF411646020A8DF80C208DF80D0052
:102D8000080A8DF80E000A208DF8010000250420A5
:102D90008DF800508DF802000E4C03A88DF80F102E
:102DA000012701902A462770694604F11400FEF7B6
:102DB000E5FC20B1277004B0BDE8F08120BF16B15A
:102DC00021780129FAD0217825700229F3D1002039
:102DD000F1E7000008000020F8B514460D4606464D
:102DE0003220FFF75FFA012229463046FFF7C0FF85
:102DF0003220FFF757FA012269463046FFF776FF87
:102E0000BDF800102140A942EAD1F8BD2DE9F84FE4
:102E1000204D924689460646984601226946184644
:102E2000AF68FDF7EDFD58B3009800210446801C03
:102E300009E000BF00EA07035AF8212005EB8303ED
:102E4000401C491CDA604145F4D34FEA164AFDF7AD
:102E500085FE4AEA0041601C384005EB80003C409A
:102E600005EB8402C160D06866F3C50068F3891081
:102E700069F39F2020F00300401C20F00400D06084
:102E800095F8200402E000BFFEF76EFF0028FBD19A
:102E9000BDE8F88FCC1600202DE9F041044640F241
:102EA0000C602168890001F1A041C1F80007616848
:102EB000890001F1A041C1F800072068FEF75BFE20
:102EC0006068FEF758FE216840F20D60890001F14C
:102ED000A041C1F800076168890001F1A041C1F873
:102EE00000070420FFF7E6F900274FF0A046012570
:102EF0002179D6F81005C84010F0010F02D0002F3C
:102F00001DD010E0217805FA01F0C6F80C05042068
:102F1000FFF7D0F92068FEF72EFE0420FFF7CAF96C
:102F20007F1C092FE4DB20798540C6F80C5504206E
:102F3000FFF7C0F96068BDE8F041FEF71CBEBDE8D0
:102F4000F0810000027805482AB10321012A03D04C
:102F5000022A02D100E0022101707047080000201F
:102F60001FB50A4601788DF8001001798DF804101C
:102F700041798DF80510017A8DF80610017B8DF8E6
:102F800007100169029140690390044850F822102B
:102F9000083850F82220684690471FBD480000209E
:102FA0002DE9F04F0D464FF4927887B00446414624
:102FB000FFF751F94FF0020B01264FF4827740B131
:102FC00041462046FFF74CF939462046FFF743F9C2
:102FD000C0B34FF482712046FFF73DF9DFF8088156
:102FE0000100EA4605F10C094FF000073ED04FF40E
:102FF00082712046FFF734F9142249460AF1040091
:10300000FDF790F995F82E0058B1287B012827D0BC
:10301000D4F84C050290287B022824D0D4F84C0523
:1030200003904FF4B0712046FFF71AF94FF4AE71D8
:103030002046FFF715F995F83000A8B395F82E0053
:1030400090BB37E0FFE7A868C4F80803C5F808B0EC
:10305000A868C4F804032662666107B0BDE8F08F73
:10306000D4F83C05D6E7D4F83C05D9E74FF4A47171
:103070002046FFF7F5F8287B68B14FF40070C4F8DC
:103080000002801CA860C4F80883A868C4F8040380
:10309000A6602662E1E7142249460AF10400FDF722
:1030A00041F995F8300028B90020C4F80002AF605B
:1030B000C4F80883D4F8C404C4F8C404810702D552
:1030C0008DF8006006E0400702D58DF800B001E001
:1030D0008DF8007095F8300008B985F82F70D5E9A3
:1030E000002168469047B8E702029C012DE9F05F95
:1030F00006461F4615460C464FF0000A4FF0080BD7
:103100004FF48279D068FFF707FA00287ED0834811
:10311000C4F8080396F82F0028B1B068C4F8040377
:103120001120BDE8F09F780703D4F80601D40120F0
:1031300000E0002086F82F001422294606F10C003A
:10314000FDF7F0F8C7F3001086F830006878C4F88F
:1031500088054FF482712046FFF782F84FF4927190
:103160002046FFF77DF8F8074FF0010800D04046F1
:10317000C4F85005B80701D5404600E00020C4F867
:103180004005287800286BD001287CD002284DD03B
:10319000032814D04FF0070A380704D428780328EE
:1031A00001D044F80B80306800286DD0780702D534
:1031B0004FF40070B060B068C4F80403ABE0286955
:1031C000FFF7AAF910B34FF48070C4F800026968E1
:1031D000E868C4F84405C4F848154FF4A8712046BF
:1031E000FFF73EF84FF4B0712046FFF739F84FF47F
:1031F000A4712046FFF734F8C4F82080C4F8088092
:103200004FF4A8712046FFF726F800E026E00028DA
:10321000F6D04FF4A8712046FFF722F8A968286974
:10322000C4F84405C4F848153D4815E06968E868E5
:10323000C4F84405C4F848152869FFF76DF968B16A
:103240002969A868C4F83415C4F838054FF48450C7
:10325000C4F8000240F20220B0609DE7102060E751
:10326000E9686868C4F84415C4F84805B8060FD57D
:103270004FF48070C4F800022948B0604FF4A4797C
:103280004946204601E00CE01BE0FEF7E9FF05E0BF
:103290004FF40070C4F80002801CB060C4F82080B5
:1032A0007AE7E9686868C4F83415C4F838054FF45B
:1032B0008050C4F8000240F20220B0604FF0000BD2
:1032C000ECE745464FF482774FF492780BE04146A5
:1032D0002046FEF7C0FF30B141462046FEF7C0FF52
:1032E00025626561B94649462046FEF7B4FF0028CD
:1032F000EDD0D4F8C404C4F8C404002186F82F101B
:1033000048B10321820701D548F20121400701D5C8
:1033100048F202218A46504603E7000002029C015F
:103320000002040070B50C4605464FF48E71FEF79E
:10333000A2FF216AA068415C206A401C2062C5F897
:103340001C1570BD1FB500228DF800200291816808
:1033500001914261D0E90012684690471FBD00000C
:103360001FB50A4601788DF8001041680191017A75
:103370008DF80810C0680390044850F82210001F10
:1033800050F82220684690471FBD000034000020FE
:1033900001490120087070475400002010B588B022
:1033A000044620220E496846FCF7BCFF0620009028
:1033B000C01F0190029003904FF0EB7006900CB18B
:1033C000084A00E0002269460748FEF7EDF908B117
:1033D000FDF73BFA0448001F447008B010BD000020
:1033E000FC3D010091330000580000202DE9FF470B
:1033F0000C4605464FF40071FEF743FF01274FF4DA
:103400000178002618B34FF4927949462846FEF712
:103410002DFFE0B149462846FEF72DFFC5F8088389
:1034200094F8290000B96F6002208DF80000D5F8EB
:103430008004C5F880040390A0690290E0680190C0
:10344000A661E661D4E900126846904728E00421AD
:103450002846FEF716FF18B34FF484712846FEF78E
:1034600005FFE8B121462846FFF7A8FB616AA0697D
:10347000884215D1E06938B1E268616AA0612069CB
:10348000E6616662E06008E094F8290000B96F60C8
:10349000C5F80883A661E268616A2046FFF7A7FBCA
:1034A0004FF48E7841462846FEF7E0FE78B1206A58
:1034B0006169884202D294F8280020B34146284628
:1034C000FEF7D9FE616911B12046FFF73BFF4FF4CB
:1034D000A27841462846FEF7C9FE002818D041468A
:1034E0002846FEF7C8FE94F8290000B12F60A069B5
:1034F00000280DD0A661E268616A04B02046BDE8EC
:10350000F047FFF774BB21462846FFF70BFFDEE7C5
:10351000BDE8FF871FB50A4601788DF800104168A5
:103520000191017A8DF80810C0680390044850F8A2
:103530002210001F50F82220684690471FBD00004F
:10354000340000202DE9FF410C464FF492770546E8
:103550003946FEF79CFE0026C0B139462846FEF7E4
:103560009BFE02208DF80000D5F88004C5F8800489
:103570000390D5F83C058DF80800E0680190A6613D
:10358000E661D4E900126846904723E04FF488775B
:1035900039462846FEF77BFEE0B139462846FEF75D
:1035A0007BFED5F83C15A069884213D1E06960B173
:1035B000E268D5F8000220F02000C5F80002E069BA
:1035C000A0612069E661E06001E0A661E268204652
:1035D000FFF718FB4FF4A27739462846FEF757FE4F
:1035E00060B139462846FEF757FEA06930B1A661A2
:1035F000D5F83C152046E268FFF704FB4FF49077BE
:1036000039462846FEF743FE002813D0394628469F
:10361000FEF742FE606900280CD0D5F84C058DF805
:1036200000608DF80800A06801906661D4E900127E
:1036300068469047BDE8FF812DE9F05F8346DDE9EC
:103640000A4A994690460D460846012703E000BF06
:10365000B0FBF8F07F1C4045FAD2B94500D94F467F
:103660005FEACA7012D18CB15FEA8A7002D5B9F1F3
:10367000000F01D0202607E0302605E031465846ED
:10368000641EFDF701FA0CB1A742F7D35FF0010603
:10369000B9F1010F02D9A9F1010903E0B5FBF6F078
:1036A000404502D306FB08F6F2E7DFF83C9000BF86
:1036B000B5FBF6F000FB165519F800105846FDF75B
:1036C000E3F9B6FBF8F6002EF2D15FEACA7009D032
:1036D000002C07D0A74205D220215846641EFDF7D2
:1036E000D3F9F5E7BDE8F09FE03D010000000000E0
:1036F0000338FDD8704770DC9BDDA0E593E9F9ED58
:1037000045F84AFD3300260BBC12A7167A19F80EAD
:1037100022059C010DFC77FD8C01DBFF47FE41F784
:1037200074F067E95EE0B2E0E9E551ED2FF1AAF24D
:10373000F9F953F924F8E1FDC80065030B074C08BB
:10374000DB075710BC1CEC24092A902AE32AFB2033
:10375000D514550E1204D0F851F041F2E6F347F8B3
:1037600025FCF7FF54F9A4EF18ED86ED6DEF39ED68
:1037700068F1F0F1CAFBA90BF618971C231DDD1E9A
:10378000A41B6322AE27C82A172A431C470DDD005D
:10379000E9F616F0F5E667E023E0B0DE51E463E712
:1037A000F2E833EC47EDBCF710FD19FAE802B8096E
:1037B000200CAB123F14171A9820731EE715810CCA
:1037C0001005CEFE77FA90F9FBF8B9F2F8EB69E153
:1037D00031DBDFD771DAEAE52BEA41EE80F85FFEF4
:1037E00074FEBD025E047004AF053703D400A60169
:1037F0001A0A5915A41CED1E9D19FC17D611650E49
:10380000400C6CFFB6F31FED1DEB74EBE8E8EEE740
:10381000C5E59EDC99E0C9E558E6F5EE9BF322FA92
:103820000C049916DB225024B72114222A211121DD
:10383000A024142AA025F01AAE10500381FA7BF9B7
:10384000B1F8BCF26BE7B1E7B9E899E739E567EDA4
:1038500045F518F718FA75F6E7FB1107050F7A1505
:10386000C31AD21EF4217A1C69111E07A00180FF21
:10387000BC01AA02A70215FBA7F700F1C4E8DAE928
:103880004DE518E75BE7DAE9DEF472F9ACF673FBB5
:10389000550333FC59FDADFFB3FC3501410E15193D
:1038A0008C1CDE1D5B1B8D16E8108108120298F43B
:1038B000B1E654E58BE103E483E547E8C5E197DC35
:1038C00095E085E533EA31EC26EEB5F2DE01790EBE
:1038D00042169A15D516CA196E1A211EA921592108
:1038E000AC1FB716AD0602FD7AF4D6EDB2E77FE65F
:1038F00089E726E54BEA1DEF55F3C7FCB804FA0A41
:10390000460F620E3B1064153F18FA203324BB2289
:10391000BC23361C0F11950BE6053B078A0A850769
:1039200078FC28F7BBF06BE6ABE2E7DEF3E009E2F8
:103930004AE860EC95F1A1F98BF8EFFD40FB0D032F
:10394000240411F73301610CC30AC50BB3125A19D1
:10395000521B4315130E5508D7F92DED46E7B3E674
:10396000FEE56AE514E296D76BD50ED907DED7E0FF
:103970006CE431EA21F537F73D02F30C0A08B90689
:103980007604C909D00C8E15471DAB1BD919E71851
:10399000E216160E9E0A9A0696041DF9CAF50BF752
:1039A0007EF7CFF8F1F665FE0B01D208A5107A1468
:1039B000E11A771A531A411ABF1DB61F871A2E0C27
:1039C000E5069D0436FDB203B90B8F065C0018FDB9
:1039D0009AF4B7ECBFEB99F135F8D7FA56005307D4
:1039E000AA0B130BC30EEE10E80FCA0FCD08EB00A5
:1039F000F300C0005E009901FFFD0CFB33F9CBF230
:103A00006EEE24EA06DCA6D7A6DD03E33EE617EC5D
:103A10001FEC4BE524E72AEDCEF455F49AF308F5B4
:103A2000C0F91F016B0BA11236110F14D712ED1143
:103A300033139D180814CE0A0001B0F2F5E9B9E37A
:103A400066E1BEE2D8E2FCE348E717E9D6F3EAFF15
:103A50006D0A320D5E15951FF420F426392D933131
:103A600042300F2F6D2E122D5824ED199A15440B4C
:103A700070054B00FFF4CCEC8DEC37E651DA28DB17
:103A800051D961E523ED3BFAED063D0DEF0FB00A8C
:103A900059150A134C11920F380C09101C137B1D79
:103AA000AE1DEC1CC01967184312F504ACFDDAF327
:103AB00009E756DC50D9F7D6ADD1A9D069C78CCA71
:103AC000BACDD6D2CED8A3D8DFDEF6EC18FA3909B3
:103AD000EF127D132E1ACE194D1AF217C11CBF1505
:103AE0008D0CBC070BFA33F310EDDCE786E23DDD0D
:103AF00038DA4BDDB1E2ADE10EEC3EF9E3FBE40573
:103B0000C710F916C0192B1F362548266429C4276B
:103B1000BF285C1FE414FC107A08470A480DEE0821
:103B2000C702B2FE8BF9ABF0D4F267F6FAFD2EFFB6
:103B30008006B00ABA11F812360A510A1A07AB0CFD
:103B4000600A3A018904AE0DE00CBE0ABD10A80F50
:103B5000C0072DFC4CF70CF3A1E7B2E3E7D890DEE9
:103B6000E6DD09DBC5E220DDB6DD4CE0C8E413E8A4
:103B70004FE89EF70203BB0C22116212530FC70CD1
:103B8000330D3D0AF9098D05180086FA5DF7E7EA5D
:103B900075E94DE4BEDC9FDCBBD635D7C4DA4BE219
:103BA000FAE722F29BFBEA06691D8D2AD027AC2B8F
:103BB000AB30C9309B31062FB92DAD26CB19811200
:103BC000C50B2805DE01A10096FB7AFB54F8C0ED79
:103BD000F2EB9EE9BAED2BF29FF90D06D20E2C18EE
:103BE0001E13D41520192D1BBB226A20BE1DD22600
:103BF000232CB229E823EC1E9712AF046FF4EFEAEE
:103C000096E24DD548CFD0CBCFCF5CD0BAD79ED897
:103C10002ED432D294D4DADDA9E5A8EE27FA2D0409
:103C200009125617691DB619A9175E1A3416871896
:103C3000E810C1073C0159F634E9CDE2C5DFCDD625
:103C400035D3DCCFB2CED3D2C2DA5CE23CEEA3F104
:103C50003BF8AD086B0D2311661C66203B23342A0C
:103C6000492C2D30DA2A8B21EC25CB1EF81A7D1D2C
:103C7000A615660F0909570695FCD9F611F964F8DF
:103C800037FB7CFC240953093A132F0D9D04F001E6
:103C9000AEF8A706F3006703EF11F914A817BC16D6
:103CA0001E1ED41C111B2711140687FA21F5A0F340
:103CB000C0ED32ED61E963E232D7E5D394D166D449
:103CC0007ED1B1D53ADA19E545F243F8AD04F506EF
:103CD0000B05720AE405210C570EA4027DFF67F95B
:103CE000C2F011EB1DEA4EE39EDC6ADB5CDB6ADFAF
:103CF00080EB12F3C9FAA0FF45026D0E9014031574
:103D0000131A2C1B991AB321F82277235820061670
:103D1000EE13A408D6007C03B30028FD42FCD8FCB7
:103D2000A7F50BF63FFB1403900B240D6A1AC8216C
:103D30001D320132E2270926ED20C022621B151335
:103D40002F15751622126F0F2A0A3501F3FA1AF38E
:103D500054E126CF15CDB0CEA1CF30D16CD2EDD667
:103D600023D959DF79E5DAE716EA71F94F01120E26
:103D70002C18AB193019781294090608E90592033A
:103D8000470577FC1DF873EDD8E1DBDCAAD673D3C9
:103D900066C8FAC413C606C74BD476DF38E864EDAC
:103DA000F0F3C5002817221E1D24C62CAB25312692
:103DB000D724FB22DB20FB16B711DE112209DAFF24
:103DC0003C03D803B3FF8FFEC5FB1CF590F632F819
:103DD0007FFDEA032B08A215791E2E23BD1AF518C4
:103DE000391D5C215222231CF8212D23A31FE51D20
:103DF000601B781A4D13D41188075BF79AEE48E8D8
:103E0000D6E455E322E6B2DF60DF33DEABDE33DE3D
:103E1000CBDE22E932EF2FF6E7FC1206E0099D0A1D
:103E20000D0C020B72054F07C70A88078F028EF828
:103E30006EF770F188E89AE27BD92BD55AD33ED041
:103E4000ABCFDCDA7CE716F2B1F748F4FBFCBF0A33
:103E5000D610EE18591D6019211C5F1A52187B12DA
:103E600092097B08C90326014602A6FDE6F528F063
:103E7000ADEE13F4E9EFDFEF70F88104340F970F24
:103E8000161F4A2A2F30F528C120D222E41F3B21D9
:103E9000861CBC21BE27F71FF81CEE184513DF1344
:103EA00023118906EBF84CEB97E8F1E0A4D8D1DCBC
:103EB00062D80ADA94DAD3DB4EE52AEAEAF313FB96
:103EC0000D04EE12E61B8E1FEC1BD414430D9A0852
:103ED0006508320A1407F7FD2CEF9DE82CE05DDA47
:103EE00062D5ADCB93CA90C9BDC54CC3ECCFBCDF86
:103EF000B3E989F0ECF42B051216A61A4F1F4023E4
:103F00005827B52B4E2CE3241C19070C6D0797017D
:103F100079FEE00097FD1EF5A7ED60EA77E864E81A
:103F20005FEB48F1F5F6DAFA4B01FC10E81F9D1C37
:103F30007B163815581B4B22962286225227EF25D6
:103F4000D9236328992A9C243A1EE715260628F4CB
:103F500049EA27E792E2A7E093D884D5DDD5C9D511
:103F600049D606D501DABFE203E96CF5F304341152
:103F7000A019901DE41FA1209D1E861EB91D071EBD
:103F80007215360B8E0072F97BF18EE0B7D0CCCC77
:103F900035CA10C6AFC807D5A3E3CAE852ED48F545
:103FA00092FF70091D109117821DE21F9022D925E2
:103FB0001623FF1ABD11080EFE0C57058404FFFFDF
:103FC00013FCC8FA82F85DF894EF77EB62F146FBD8
:103FD00026FFE40493123019651A400FA6073B0927
:103FE000AB097B0EAE0D1D11E614FA15DC145F183B
:103FF000F615F3139B12690BB7008EF22CEBD3E985
:10400000CBE5ABE4EFE313E4BEDA79D41BD8EBDB0A
:1040100013E11EE4ECEB44F7F9FB3B026409BC0935
:10402000900A4309C90BE1109E0CF30BF1098B03B5
:10403000E4FBC9F4ADF484EF47EA0FE6ADE2C6E075
:10404000D9E59AF310FCA3FE74FB99FCBE07D409D2
:104050008D0F4112D51033125A16781BFD17840D9F
:104060004503D005F20374042A09F209D60755FF67
:10407000C0FC30F66CF7AEF7EFFE9D053D08A910C9
:10408000DB18E62048182B15BF1101151516BD0CBD
:10409000E316DC186015DE136513A9150B0EF80B7B
:1040A0001C0810FC3CE9F0E32AE3F1E457E459D999
:1040B000E6D9BFD856DAB7DC80DC94E0E4E9C7F291
:1040C0007A00A80D4813C9160416931093070D051E
:1040D000FF09350458FF0BF9C0F3ADEC9EE035E164
:1040E0005EDA13D8FFD8F4D2DAD599DC25E788F167
:1040F00028F505F7ECFA1A0851181820D425502A8B
:10410000E92E8C3609374231AD216C12A20CC70161
:104110008BFA4EFB5EF652F305F84FF9FBF4A9F665
:1041200049F798FF190483049211F51FD027D0197D
:10413000B21085100119E51BA1116214BB19B71942
:10414000521D691F6823441E9E163311260415F262
:10415000DDE443E75EE552EDBCE704E45FE465DDE2
:10416000B4E096D797DB24E208ED2EF872FB31FF1E
:10417000CCFFA7FDE6F90BFEDCFF2EFE680000FD7C
:1041800053F320ED75E549E40DDD4ED603D708D88D
:104190002AD568D351DC7DEC72F888F898FBE7FFEC
:1041A000F40419102612511A8D199D0E250E811036
:1041B000DB15120E350338047703A7FEBF05D607BB
:1041C00003099A0A1E0B37129C0BFD0B9716DE2370
:1041D0001B211D21E628BA2A75293F14D40E6A1026
:1041E0003510AD10B206C70E8D0E540F7511160F97
:1041F0001211080E1A0CA906BFFC20F1AFED30F326
:1042000019EFBBED0EEBC8F4A5F36CEC2AEDECEC6A
:10421000C5F07AF4F8FD6E06AA0BC10F480B0A0927
:1042200007FD99F372F587EF12F2BAF1BDE57CDD77
:104230008FD689D00ED26CD23ACF94CF36CDBDD1A5
:1042400083DBCEF2C70113018503F8047E107817D3
:10425000241CEF25F2224E1E6A1D911A0A0F8702B6
:1042600073F48FEFB4F1F9F246F830FADAF575EF3E
:10427000FCF443F78DF6EAFA48056D137613671ED2
:1042800059285B2E3A270B1C6920D11BB01A3F1E00
:10429000DA1F0722F01F502204241122D21C1F17FC
:1042A00015109FFE0FF416ECE4E3D1DBB6DC3DD82D
:1042B00066D79CD76AD6C1E2DEE33DEB90F5CB0131
:1042C000E71595251B234223881FD91B07138E1042
:1042D000000E0D0ADA021BF8E6ECBFE1C7D2C9CB2B
:1042E000E2C532BBAEBAA7B540B729C557D88DE6EF
:1042F0000EE904EEE3FBA10A2D18F4225C28D22873
:10430000CF27A92CBF2A8D1E840CE202E6FABDF34A
:104310000DF94EFCD0FEBDF593F058F21AED33EADC
:10432000C8E771EAEAF25BF81F0CA71B42230B1DDA
:10433000021A591EED209627A62670238F202C1BCB
:10434000471A671C661B3D195F11A206E9FB0BEEBD
:10435000B3E772E6E2E608ED62E5E9E577EAF1E562
:104360006EE43CEABFF5A0015D081917481ECD1D9B
:104370004420E219AD1A6414BE0EA10B0009D70344
:10438000C0FCFBF674F261EA59DF89D93BD4F5CD64
:1043900060C60ECED0DACEE416ED9BF09DF2E2F9C7
:1043A000FE07EA12A817661D15185A174C1CD91CCF
:1043B0003F1B76113F07E5FD74F6FCF65EF986F5C6
:1043C000D2F18DF06AF6F0EE4FE72CEDE1F298FABB
:1043D0006301D30C8C16B823F520FF129718701BBD
:1043E0001F232922BC1E3A1F241BCE1A761BFD1741
:1043F000A915C0151D08FBFA8EEA9EDCBFDD76D834
:1044000066D605D4D3D538DAAAD3C1D8FDE113F0E6
:1044100019FD8F072011FA19131E90287B22D71E31
:10442000E31638149317451215144D0B1200E0F2E1
:1044300034E826E360D946D1AECC8AC565C6D4CF70
:10444000AADF2BEF52F3C3F477F7F2025D152723AF
:104450002C289824EE1F8F21FA24BC1E63185B10B1
:104460004F08650934076B05D4069102D0F63AF778
:10447000F6F7D1F485F425F03DF3A4F50FFDEB0C30
:104480005811E1129D0EBC11B0145815BE23BA2864
:1044900036242F214F1F1020D717DC10D90DDD0433
:1044A000C1F8F7EBFBE3CEDFBDD8D1D5BBDCE3DA57
:1044B00090D4B2CF05CF2AD058D2B6E119EFA803D5
:1044C000950D7D162A1B2312D916131252135E0F57
:1044D000480D3B121A095404C0FD5AF4AFEF31E8FD
:1044E00091E52EDF29D401D385DC7AEFAAEFEBEE3C
:1044F00065E95AF151FF1B0710171717B214B018CE
:10450000E920FF26761ED31AC317E01632152E10A7
:10451000E116AC1469067CFDD6FD4CFAEEF7B0F658
:1045200097EF5BED3EF5EE06CF10C10CF003D10620
:10453000D20A57132C224D288620AD1D3B2240273E
:10454000D726B226F224281D6C0EA2FF15F5A8EA84
:104550001BDE00D92BD82DCEEEC754C9F2C60EC132
:10456000ADC50DD686DF00ED73F7E603D714BC0C9E
:104570007B117A10150EF30D0708B90A180A9B056E
:104580005E0618FED4F4B1E912E2D8D837CFB8CD20
:1045900065D5D5DFC0E40DE62BE20DE9ECF4A3040C
:1045A000BD14CB17E31B03185F1E60249823FC2166
:1045B0007A19FE12D80CB10BC80E2113880C2D07E6
:1045C000D90964077402840444FB6DF7A7F32EFC39
:1045D000350EC00EB80E95037B060E101818DA23A0
:1045E000D721EB205B2478294D32FC2A842A3229FA
:1045F0007B1E2A0E0AFDA0F135EE29E613DC09D94F
:1046000087DA64D6D8CFA9C547C644D1E5DB60E2D6
:10461000DDF144F9340149FF90054007FF07901090
:10462000E20C9311950B6D08550600F787F22AEC02
:1046300074E796E76CE06EDAFED712DF65E6A2E675
:1046400017E24DDC02E225EDE0FBE500D2051D0599
:104650001EFECD0C9C08510F760F520EB411BA15E8
:10466000F11B6720CC21851725199715D309DE0981
:10467000310CD80CC50CF2063516071ECF18B20E39
:10468000C604A207E2FEC00C5C1234064F0BE80D14
:104690004717D6176C16CE1FE5217B16200F5E0933
:1046A0006B069CFE8CF5A0F3ADF221EA6AE559E8B1
:1046B0009FE23BDE68DCAAE40DF391FB77FCDAFDB8
:1046C0009AF826F8D3EFA2EB7BE93FEBA8F29BF731
:1046D000E1F6A3F303F290EF62F098EDBDEFE7E9A6
:1046E000B3E99AF2EAF66BF8D1F5D5F281F7DCFC82
:1046F0003D05710A8E099B081F03B8079D032A0216
:104700005C0109F4A3F28DF151F34A02770097049A
:10471000910BBA070607DC0505050E081808FE0D03
:10472000421FF4232921451E2A20681CF821682AEB
:104730007924DE1C3715991385169E16A319D016F9
:10474000C909CBFABCEFD7E6E7E621E837ECC6F0BB
:10475000C8EDE3E85FEC12EBBAEB5FF2A6F8E60017
:10476000B909DE0E8714DE141310FB095908DE03A5
:10477000BB0243FE9FFB7DF4D0EBFDE680E4FEE24E
:104780004CE103E0CFD6C7D5EFDCB4E995F090EF6C
:104790005BED73EE55F62E037512431CD41B1010FF
:1047A0001A0E1613AC1364108810550B3D04EF015C
:1047B0003EFF5809F10286FC70FE42F769F0E7ED12
:1047C0001FEDABED93F21EF68301EB07FC0A2810F8
:1047D0003913B9189E1ED9290F2C3C271A26B4224A
:1047E00058203420931C661C150E50FD3DF6C9EC74
:1047F0007AEA81E703EC3CEABDEA22E3AEE298DD27
:104800007BDB5EE877F1D9FB07FF200ACF12A71AFE
:10481000AA1CB114EA162711E911A00BF4046AFDD1
:1048200099F6ECF125E783E355DA46D6FAD4C8CFFA
:1048300092D4DAE160EC00EF08EA5AEAEFEA54F5C4
:104840004D02650B7C0DB904E70A9013421B031A55
:10485000801E5F1ADC132E1103106212E909DC03BB
:10486000C9022AFB71F5D3F303F1D9EE16F38AF5E9
:104870002A01090254024A03420093026F0AE41615
:104880009511F413E21A1A1CC2210E2419285E276E
:104890003D17830D070771FE92F5F0EBD8E808E8A5
:1048A0005BE41EDDE2D629D25ED9C1E0EEE8EEF986
:1048B0002C051811D210190FC207D406D70AD20836
:1048C000110FC50FB911C90FF50E2C0A1B0265FA9D
:1048D000BBF320ED92E0ACD5A1D581DD9BE4B8E53A
:1048E00041E272E4AEEAEDF6F5FDEEFDFFFB6FFA94
:1048F00088044C0F0610230C2609020A41094B0EAE
:10490000C1144B168D159013FF0D5D0796027100B3
:104910008E00B8F80DFD75FF48FFDC012501130579
:10492000DC06410926100010470C600EAB129913EB
:10493000FE156D1919190D15490F9509FA0265FE35
:104940000FFDCAFB8CF832F273ED3BF141E9DBE17C
:104950008BE107E490ED0FF113F9F1FBA0FE1C06CB
:10496000DF046B038708EB078A0A910BAD0683050A
:10497000DA0094FCA8FA10F8A0F795F106EAF6EB35
:104980002DF20BF3BCF4E2F549FB9700D908310D89
:10499000E70D7D084BFF74FE7B032609690A7E073D
:1049A00044FF38FA79F7DDFCF802F0027C02CBFD17
:1049B000F6F89CF552F8EFF82AF7A2F2C4F7A10531
:1049C0009A0DE112F9143515521455193E1DFC15B6
:1049D0001E0D3F03B1006DFFC502FC054D06B3017E
:1049E000A9F895F617F5C3F55BF884F800F993F686
:1049F000B1F2DEEE5AEB04EFFFF363F9F8FAF4FEDE
:104A0000400498046F09B20456037AFF3DF84BF84E
:104A100065F90A01F9FCC9FDB002B300AD008CFADA
:104A2000ECFB75F9E5EF6EF34BFBF2FCC7F86CF5A8
:104A300094F671F164FAA300C901F1001E00A70AFF
:104A4000E50DC711AC175818990E3006CB02170B9D
:104A5000350B3806AC0DE8067700FDFDCAFA5EFDA1
:104A6000D7FC89FA8401C905AD055306AD00720073
:104A700042026B0A750AB503FB0402073E0A9B0B50
:104A8000130F831480107406A1FDDFF616F43AF1BB
:104A9000A4F37AF148EB8EE6D3E970F072F2C2F03B
:104AA00060F63DFC6F03500CC8059204B802B6FDD9
:104AB00044011CFC87F6DEFA16FDC7FE6EFE5C01A3
:104AC000BAFE64FC4FFEADFC7DF5EAEC90F057F6C3
:104AD0005EFCC7FFA9FCFC0395068A0E0610BE0B00
:104AE0000C0ADE096B09F60506070100FBF5FDEE71
:104AF000EFE94BED5DF1F1F798FF8206820883083C
:104B0000CF0BEE0B75106E104B0EA21036114A151E
:104B100048149119E7193B176D183513CF0ED109B9
:104B20008107740748055E032AFFC1F1BCE804E46D
:104B3000BEDE0BE042DF82DE0CE24FE041E3D6EE68
:104B40000DF6A8FD7E010A08910A5C0C500F69134E
:104B5000C2146D15F60E280DA9083B0230037EFF26
:104B6000E2FA35F77EF051E97EE445E21AE086DEAE
:104B700017DCC4E293EF2EF958FFB6010F07F10DD1
:104B8000AC13B71667160614AD158A19571C2F1BE0
:104B900043163C0BA8FFCBFA40F839FAD9F87CF35E
:104BA00027F547F4D4ED25EDBDE9B9EC28F5EFF391
:104BB0006BFF7906EA0F7E18E4185B22D52B1832BA
:104BC000172B7226F0248720521E2C1F161E6E18DB
:104BD0000E0CD5FC46F646EDDBDF5AD8CED0A6CD7E
:104BE0007FCBD7C573C84ACE36DD53EB7DF7FBFECE
:104BF000E1046A0CD40E2F140B16E8133313F60CD1
:104C00002210C50F400B1D0D4C0AEF01ACF935EE1B
:104C1000BBE454E0FADA9BD466DDB3E5D3EB13EEE4
:104C200020F0DFFB91FE0D09E30E310E6C137316BD
:104C30007F1AA8232124501C6E15260C5705EA085C
:104C400016074803590051FC49F77CF1F7EDC3EE14
:104C50007BF3E6F335F554FD8C01F9080E0E150FC4
:104C6000E81428179418991551132114A714CB1779
:104C70000A1BFB1A9615860E6005BAFCBDF50BEDF6
:104C80000DE557E10EDE94D451D38DD54CDF8AE784
:104C9000D4F31DFE7B01E40510FF5B071807BDFF81
:104CA0001A04ECFD2C046E055104490AB6063C08B2
:104CB000A1086003F8FFB2F6ABEC1FE17BDCA5DFD7
:104CC00072E2DEE616EA1BED2CECBCF789FE12025E
:104CD000C2098B11091BBA1AEF1D96198A143110DB
:104CE0003E0E4815841846167A12AE11890AC50080
:104CF00049FC4BF80CF7F9F346F171EB52E940EF40
:104D000087F83007A00DE417401CFF1C251EFC216E
:104D10008A2C992F1730A02F0824F416DE08E3FB05
:104D200091F1E6EBB5E365D8ABD262C492C654CC40
:104D3000AED68CDD5CE431ECF2EF3DF1A4F96CFF12
:104D40007CFFDE06D908840E10100910FC148E12A8
:104D50000B1673133F0C070213FA86F798F1DFE680
:104D6000F6E7E7E4A0E60CE640E37AE4A7E2DAED52
:104D700058F4F2F5B6F6ADFB42041D0B890C5D0F3D
:104D8000850FB0102015141F5A29012B952738279D
:104D90007924AB1CA21297063C034CFCBCF4C2EF76
:104DA000F3EB38EB18EA09EE75F55BFF6C098C093B
:104DB000170E52115516F21E75241429D42A2D27C8
:104DC000C4208619D90FE4078F0232FE3FF6BEE8F1
:104DD00096DF00DACDDBF0DC67DFD7E044DE3BE2D4
:104DE00064E0A5E9AEE416E361EC86E88BEEEDF253
:104DF000AEFA64FF2BFFDE058B056B0225FCD1F9B3
:104E0000ADFB4BF70CF146F8CFFC9E002BFABCF53E
:104E1000B1F425F608FB8AFAF3F51DF631FB89FD9E
:104E200031015C01A9FDA4F9FDFA2FFBBD09921621
:104E3000D317311DCA1EAA1E3517DA135F120318C5
:104E4000AD19C7105716DF15291268081100430065
:104E5000AD02D204CD008A04A5053B06BA0BA10C15
:104E6000AD09B4070E0654087A0B1C0B2509760B06
:104E7000920E910AC2FCE3F628F98DF65EF753F71D
:104E800047F280F58EF4BDF253F532F488F263EF09
:104E90007FF1E8F15DF410F267EE17F64FF417EFCB
:104EA00098EDF1EEC8F359F2E6F062F20BF544F832
:104EB000AAF689F69FF340F14BF394EFCDED87F01E
:104EC000C0F6C6FEF5FE60FE00FC14F700F953FCC8
:104ED00036025206C406590AE40B7409F1027D0534
:104EE000E00D5A15D41E3B23F221AA21961DDB1991
:104EF00047187B11E3113E0EED093509D008070D67
:104F0000950A3D0707063A0425064006E2055A08B9
:104F10001208C5031702E1FB56F9A4F9E3F918FCDE
:104F20000A039B09FD0B570E840A860AEE02A9FBB1
:104F30005DF7A5EFB8F334EF67F293F2C1F168F7CC
:104F4000A9FB28FEBDF9E9F4CAEED1EC6EE7B2E8A0
:104F500075EE5FF49CF4A9F126F009F1C5F778FC31
:104F600020004901B404E0071004230179F847F058
:104F70002BEE63EA2DEA41F136F413F53FF671F7B3
:104F8000A9F5DCF6C8F81B00030252021A0BCA0D81
:104F9000E7125016501CC11EA128812DCC25CA1F16
:104FA000B21A9C182B12E60C4108D9FFB8FA2FF65A
:104FB000E5F225F138EF4CF2DFEF9AEB19E817E94B
:104FC00070F3D9FD1E098F161F1B021D0420EE1859
:104FD0006E1E0018C3147113AD07BD03E2F852FC36
:104FE00085FBA1FE6BF837EDC0ECC7E933EB18ED9C
:104FF00070EAFEE713EC55ED2EED6FF051F086F8F8
:105000009902B80AA80AAE028A00F70187060706C5
:105010006D0183FC41F9C5F23FEF0BF9E7FD620238
:10502000B50281FFC0F7D3F3A0F348F1F5F6F5F828
:1050300008F782F6E5F570F9DDFE4806D20E59153F
:10504000C70FD90E5C10BE12820FF60F9B108C0E8C
:10505000B60F140B03069C01360039FD71F600F102
:1050600063EDB9E3AAE2FCE331E827F0F0FC1F04AA
:10507000EA0A690EAA0F8E1329140A15A3103D0F10
:105080005D0FAE0C79082C050007C0067102DFFE2B
:1050900094F97DF7FCF785F7FCFD18021603DE0195
:1050A00042FECAFDA301A305DD02A1FE11FF16FE0B
:1050B000DFFFC8FEE605B207E9FF42F7FFEC93EE1B
:1050C0002CF685FEF2004AFF24FB27F5D8F33AF5CB
:1050D0000EF62BFCB0033F03CC029802D0048A0AE0
:1050E000E70DD00EDC0D0C0874058008B707B20779
:1050F000B7096D0854092307C1FFC6F863F769F2C1
:10510000A2ED5BE33CD805D3C5D65ADB6DDE79E56D
:1051100036F0E1FEDDFEA303370AB70DBA120C1319
:10512000301602164E1574125D132812680BE90A28
:10513000F20A8A094C07A70135FCABF9D4F0EBEA77
:1051400087E585E5CDE712EB26F83403C10B3F0F69
:10515000FB13CA1CE921202281254C24831DA7179B
:10516000C40C150CE2081D0630FE6FF5C3F35BF5A9
:10517000ACF92DFB04F959F97CF9AEF687F4AEF2DF
:10518000E8F45EF87CFC0306660F51136A0E1E0DF0
:105190008310F00F4D0D9110410E3A06C5018BFBA7
:1051A000B3F3C7EB0BEB3CEABCE4EBD8EAD895DCF5
:1051B00058E12DE63BED0AF4FEEEEBEEBDEEB2F06B
:1051C00074EF1EF008F699F20FF7EEF163F6B6FBF6
:1051D000F30365063E098E0BBF092B071E07A705C3
:1051E000B6004BFD99FEC40047FEF6022B07870A66
:1051F0006F1008133710D10764019405F003C70836
:1052000023099A06620665FE2204430AC012EF19BA
:105210004C1CD21E4A1B10169E0F05125810361435
:105220005C11900AC20B8A10541BEC1BED1D131B62
:10523000800C700428FECAFD9FFCA1FAE3F836F545
:1052400016F6E9F95EFDE8012C011AF989EEDFE7AF
:10525000B6E1CDDB1ADA55D772E155E62AEEEBF16D
:10526000A4F5210210FA8202AA00A70423FBBFEFD3
:10527000A4EBDEDF3EE393E008EB48EDCCEE0EEF6F
:105280009DF5C1F696F7D6F625F690F40CF271F27C
:105290009DF6AEFB3803870A2D121D144A118A149D
:1052A000C21A9E19A41FF71E0715D20FC707BA030B
:1052B0009F03AE09440CEE0A0F0EB50CAD115F1042
:1052C0000D125E18C21711117E042F07FD0C731703
:1052D0000E20CA23C1253E20A41955142E142C12C9
:1052E000900DA30AF709FB07DE01BEFACEFC25F7F5
:1052F00016EC91DECAD6E0D49BD87DD959E1C0E93D
:105300005AECD7F2D1EAE7EC91F025F33CF1D9ED74
:1053100060EA95E10CE49AE404E477E60DE800E93C
:10532000D6E6B1E8DCEC53EE94F052F0F3F0CDF2B7
:105330007BF423F4B7F1CCF258F596FED605FC06C3
:105340000E095C072909A70F0417C61A3A106E0543
:1053500081FD70FB86FF4F0333091707B40A740DF4
:10536000D412D5142D17971D1C1CFE162010830B6C
:10537000730E1318F922D52BE435C135BA30033139
:10538000CB2D992932242E23781BD90BBA026AF926
:1053900026F1F3E6E8E0B4DDEAD91ED61FD130D518
:1053A000CCD7AEE44DEDD4F740FA8800E5071B0EEC
:1053B000C0119112C10F8A0763FD5CFB2CF623F12B
:1053C000FCEE74E8CAE778DC37D33FD083CF89CBD3
:1053D00035C75CC937CFBDD290D7E6E178ECA1F3F1
:1053E00044FBBE038D078909000FAD1648190F2134
:1053F000A920BE1C4012250E2C09D708520A5A07B4
:10540000440AFD09DD027EFDCEFDE0005CFF22FEC8
:1054100055FCB2FC9EFBB9022D121C1FA629CA32F4
:105420006F3BE33D414097433D4414454F43A23C0D
:105430006435052A891B670AE4F71FECB5DDD6D46D
:105440008CCA44C278C3AAC726CAC9D37DD87DE412
:105450009AF196F99208F30EC017C50B8009A009BE
:105460001A07870BBC0EA9135C0ED409290157F744
:105470006BEE35E1E3D562C96FBEB9BD76C0FBC244
:1054800049CC6DD87DDDE2E562E85EEAF1F410001A
:105490002708F5115B12600ACD03F701840DE80FB0
:1054A0004C1CAC1E4A1F901E2F1A8A15300FBF0EBF
:1054B000460734FD75F174E719E1F3E3D4ED0BF71A
:1054C000CE020E08370F0B16B720222C7F33D238AE
:1054D000103735337030872CC62BB225D220DF1D14
:1054E0008C1578093CFE40F4E9F36CEE62EAD1E4F5
:1054F00014E05EE21FE040EB87F885FE7103F4FEE6
:105500008FFC1FFBE6FBFEFF6E069C0420027FFD66
:105510000BF56AF889F8FAF64CF63AFA9CFAA5F215
:10552000C6EEDEEAF8E916EB3FE828E5D0DC4DDA16
:1055300065DC3DDE32E65AF0C4F217F6DCF5BDF666
:1055400029F6AFFB39056109160CB307450B590F56
:10555000A00EA413E510E610780B3000EBF73AF834
:1055600048FC3600E303700459055103B006980F58
:1055700000147419E51B702170274E28A125F71B14
:10558000D7173610B7036EFA91F3C1F52DF55DF21A
:1055900030EFDAF6B9F8BE00C4036703B30EDD12CC
:1055A000CF12F512990A0907E602A607E90AEA0DE1
:1055B000C00D2F0B23090EFF84FC96F693F728F6F7
:1055C0003AE9A3E37CE1DDE595E6ACEB85ED1EEB86
:1055D0006DEA2FE561ECFBED84EB22F31EF0C9F3DD
:1055E00032EA05E88AE821F22EFB6C01FA09A40CE4
:1055F0001010B71197110111DC0FF30FDC0E1F070C
:10560000380030FB9DFE4EFF7AFF1EF9F7F36BF575
:10561000F4F6F7FD7EFEA4023304F105050AC50A7F
:10562000030CC509790D6C0D3A09E203280337050F
:10563000F50B8805ED071102F6010408ED048C0B4B
:105640007F097304ABF2B5E7C4E118E22DEACCF2AE
:10565000FB013A0AD9120D136510F60F47136C14AB
:10566000B41A49160E120809510CA20E6411E90E63
:1056700046010AFDC6F2F6F1B2EBBBE885E90AE0A5
:105680006CDA95D088CF5DD8ACDE13E830F8F4043E
:10569000370C14105817D81CEA19BE191B193A17E1
:1056A000F3093605F405EE0EAE135F103F10480CFB
:1056B0008708B10388FA01FA2EFAE1F4DBEFE5EC92
:1056C00042EC63EA6FEC33F015F048EE8FE82AE124
:1056D0009FE4F8EAFCEACDF1E8F282FC6206BD053F
:1056E0005E12EA186E188C144E0A02074601AC00CE
:1056F00075FCA4FD92F918F575F787F7CBF8A0FBB8
:1057000092FF61078109AF05C6013B05480B010EF9
:105710004010690ED8115910D213B315D3152B1C94
:105720004C19C80F6607A5FF9FF9EAF52DF188F11E
:105730008CF435F5D1F312FE2F068005D007F8035F
:10574000600721056FFB7FFB47FF4A0B6B1184133A
:10575000E110A70D4111280FAC11E60F79115D1072
:105760004F08BA0495FEDAF8AFED06E53CE083D8C1
:105770003DCE59CC20D0F8D73FD7C5DA28DF20EB73
:10578000A8F43CF944025A0989063401F4F911F4E9
:10579000FDF8D3FA43043A0AEC09260ACC03EDFFDC
:1057A000AFFD77015D062A0ED40DAF09CCFE53FA8A
:1057B000A8FECDFC72007C02FD06F205C402020CBC
:1057C000FF0F8E14BF127D0E650E59081C014FFE8F
:1057D000C201A60A2114D01219117D144C18721797
:1057E0002E17DB149014910BEE010C01B100A003F5
:1057F0000C077F09500E7A10DD0EE1111E17571BA2
:105800000E1E52189D11470FF105F1F9A8F0B4E5ED
:10581000F2DE59D4CCC9FBC5CAC3E9C529CCD8CE60
:1058200045D6BBD985E430F0DCF5BFF645F31CED79
:10583000DCF5F2F7FCFB910354090B10A60B0208F0
:10584000490058FAF7FA19F93EF90CF425F06BEB18
:105850004DEADCEC44F029F41300E606570A980AF6
:10586000430E0116BC1AAA1878123810E30F9C10C8
:10587000CD0D560D3A1001162C197A1B371A2A2015
:105880004C1C371BC91655127106BDFDFB000A03DF
:105890001F0B99131A1421133D166A18B419561CBC
:1058A000A521991D31128608A1076E077105B10463
:1058B000F60493FDDBF12DED48EDB4E63BE387DA2A
:1058C000DCD233D3B2CA19CBBED06EDC29DFCCDC3C
:1058D00049D66DDBFFDDB2E124EC8AF8CB05BD09CA
:1058E000C20976089E0AD60B650CBB0FE90D12069D
:1058F00070FEA5F582F214F14CEB33E263E1A4E60D
:105900008AEA99F072F696FBCAFBC1F8B3F6ACFAD4
:10591000AEFF750071046C0E3220D82B1A2CF12DBD
:10592000B52F1430D62C0E29D525391F7C16AF1370
:1059300033136316D21B211AD2162A12B80CD706BB
:10594000F20101062D07C5034705430B720EFB0A42
:10595000FA0AA70A860B060473FBF1F751F833F530
:1059600084EDBDE6AAE731EDEEE854EDC4ED20F29A
:10597000BBE66BE2DBDDEFCEC6CD71CE35DB31E4CD
:10598000F3E90BEF2AF429FB1AFFC600B7061E0E37
:105990000E0DC305A3FEFDF9E2F9BEF613F55DF5A4
:1059A000E6F04BEAC5EE5FEFAFF105F6F8EFB6F1C2
:1059B00053EE62F157F1ACF199F7B002A50C591012
:1059C000940F5F19BE23582EC8305B29C324EF1CE7
:1059D00087146014A61495195E24D0205C1D9019BC
:1059E000C513181B881BAA1C4E1D98135A1282142B
:1059F000970E1B0BE10351FE93F607EF7AEC42F290
:105A0000A8F061EB0EF123F0DDF36AF15DF36AF9C2
:105A100091F5E0F032E821E339DF37D79DD8C6E2CF
:105A20001DF327F860F9C2F9D7F9F8FE95FF660172
:105A300007076F0CD20849043C00D9FAFEF8C9F2F6
:105A400039F017F087EC4BE65CE063E0EDE1CFDE88
:105A5000F4D910DA16DDAEE222E83BE787F511054E
:105A6000F70F0B141921772E73300631C32CFD2D3F
:105A70005728DF1A5312670D500CAE13D8131E139C
:105A80001B124D0F880D3A09240E5710500D6B0D47
:105A9000601375151214150DB409B909B4015FFA34
:105AA00086FAAAFF6C03A008F508FA0B6F116B0CBD
:105AB000E503EE00E7F775F12DE853DC9CD7F9D349
:105AC0005DD347D80BDBF1DCB7E479E986EF90F2E0
:105AD000E6F14FFB3207890B700B241013166B197C
